{
  "contractName": "ArraysContract",
  "abi": [
    {
      "constant": false,
      "inputs": [],
      "name": "testArray",
      "outputs": [],
      "payable": false,
      "stateMutability": "nonpayable",
      "type": "function"
    }
  ],
  "bytecode": "0x60806040526040518060400160405280600160ff168152602001600260ff168152506000906002610031929190610044565b5034801561003e57600080fd5b506100ae565b8260038101928215610078579160200282015b82811115610077578251829060ff16905591602001919060010190610057565b5b5090506100859190610089565b5090565b6100ab91905b808211156100a757600081600090555060010161008f565b5090565b90565b610437806100bd6000396000f3fe608060405234801561001057600080fd5b506004361061002b5760003560e01c80632283bffd14610030575b600080fd5b61003861003a565b005b600860405190808252806020026020018201604052801561006a5781602001602082028038833980820191505090505b50600490805190602001906100809291906101c6565b506040518060600160405280600160000b60000b8152602001600260000b8152602001600360000b81525060039060036100bb92919061026c565b5060608060086040519080825280602002602001820160405280156100ef5781602001602082028038833980820191505090505b5091506040518060600160405280600160ff168152602001600260ff168152602001600360ff168152506000906003610129929190610316565b5061013261035b565b6040518060400160405280600181526020016002815250905060008160006002811061015a57fe5b60200201818152505060018160016002811061017257fe5b60200201818152505060018260008151811061018a57fe5b602002602001019060ff16908160ff16815250506002826001815181106101ad57fe5b602002602001019060ff16908160ff1681525050505050565b82805482825590600052602060002090601f0160209004810192821561025b5791602002820160005b8382111561022c57835183826101000a81548160ff02191690831515021790555092602001926001016020816000010492830192600103026101ef565b80156102595782816101000a81549060ff021916905560010160208160000104928301926001030261022c565b505b509050610268919061037d565b5090565b82805482825590600052602060002090601f016020900481019282156103055791602002820160005b838211156102d657835183826101000a81548160ff021916908360000b60ff1602179055509260200192600101602081600001049283019260010302610295565b80156103035782816101000a81549060ff02191690556001016020816000010492830192600103026102d6565b505b50905061031291906103ad565b5090565b826003810192821561034a579160200282015b82811115610349578251829060ff16905591602001919060010190610329565b5b50905061035791906103dd565b5090565b6040518060400160405280600290602082028038833980820191505090505090565b6103aa91905b808211156103a657600081816101000a81549060ff021916905550600101610383565b5090565b90565b6103da91905b808211156103d657600081816101000a81549060ff0219169055506001016103b3565b5090565b90565b6103ff91905b808211156103fb5760008160009055506001016103e3565b5090565b9056fea265627a7a72315820e4af83d2c82fe23d3ad9a5143031e04f12288d4820497e9434884dc2cdb581d664736f6c63430005100032",
  "source": "pragma solidity >=0.4.24;\n\ncontract ArraysContract {\n\n    // Elementary type array in storage\n    // Static Array with size 3 of type int\n    int[3]     staticIntArray = [1,2];    // Last element set to 0\n    // Dynamic array of type int8\n    int8[]     dynamicIntArray;\n    // Dynamic array of type bool\n    bool[]     dynamicBoolArray;\n\n    function testArray() public {\n        // Allocate memory for 8 elements to the dynamic bool storage array\n        dynamicBoolArray = new bool[](8);\n        // Allocate memory and initialize elements in the int array\n        // Explicit conversion is needed from uint8 to int8\n        dynamicIntArray = [int8(1),2,3];\n        // This will work fine, since we are inside a function\n        uint8[] memory memoryArray; // A Dynamic memory array\n        // Allocation with assignment not allowed for dynamic memory arrays\n        // memoryArray = [1,2,3];\n        uint8[] memory dynamicMemoryArray;  // A Dynamic memory array\n        // Assignment of dynamic NOT allowed\n        //dynamicMemoryArray = [uint8(1),2];\n        memoryArray = new uint8[](8);\n        // push() not allowed for memory array\n        // memoryArray.push(1);\n        // memoryArray.length=6;\n\n        /** Examples of array initialization with assignment below */\n\n        // Static storage array assignment is OK\n        // Compile time size check is carried out\n        // so assignment to [1,2,3,4] will fail below\n        staticIntArray = [1,2,3];\n\n\n        // Static memory array\n        uint[2] memory  staticMemoryArray;\n\n        // This is  allowed - make sure the type is matching\n        // staticMemoryArray is of type uint\n        staticMemoryArray = [uint(1),2];\n\n        // This is allowed\n        staticMemoryArray[0] = 0;\n        staticMemoryArray[1] = 1;\n\n        dynamicMemoryArray[0] = 1;\n        dynamicMemoryArray[1] = 2;\n    }\n}",
  "sourcePath": "/Users/mahesh/Desktop/Blockchain/Blockchain-Nanodegree/smart-contracts-solidity/contracts/arraysContract.sol",
  "compiler": {
    "name": "solc",
    "version": "0.5.16+commit.9c3226ce.Emscripten.clang"
  },
  "schemaVersion": "3.1.0",
  "updatedAt": "2020-04-26T20:41:54.718Z",
  "devdoc": {
    "methods": {}
  },
  "userdoc": {
    "methods": {}
  }
}