{
  "contractName": "MappingsContract",
  "abi": [
    {
      "constant": false,
      "inputs": [
        {
          "internalType": "string",
          "name": "name",
          "type": "string"
        },
        {
          "internalType": "string",
          "name": "relation",
          "type": "string"
        }
      ],
      "name": "addRelation",
      "outputs": [],
      "payable": false,
      "stateMutability": "nonpayable",
      "type": "function"
    },
    {
      "constant": true,
      "inputs": [
        {
          "internalType": "string",
          "name": "name",
          "type": "string"
        }
      ],
      "name": "getRelation",
      "outputs": [
        {
          "internalType": "string",
          "name": "",
          "type": "string"
        }
      ],
      "payable": false,
      "stateMutability": "view",
      "type": "function"
    },
    {
      "constant": false,
      "inputs": [
        {
          "internalType": "string",
          "name": "name",
          "type": "string"
        }
      ],
      "name": "removeRelation",
      "outputs": [],
      "payable": false,
      "stateMutability": "nonpayable",
      "type": "function"
    }
  ],
  "bytecode": "0x608060405234801561001057600080fd5b506106ae806100206000396000f3fe608060405234801561001057600080fd5b50600436106100415760003560e01c80635169a70d146100465780636d6e409a14610198578063f31907b714610253575b600080fd5b6101966004803603604081101561005c57600080fd5b810190808035906020019064010000000081111561007957600080fd5b82018360208201111561008b57600080fd5b803590602001918460018302840111640100000000831117156100ad57600080fd5b91908080601f016020809104026020016040519081016040528093929190818152602001838380828437600081840152601f19601f8201169050808301925050505050505091929192908035906020019064010000000081111561011057600080fd5b82018360208201111561012257600080fd5b8035906020019184600183028401116401000000008311171561014457600080fd5b91908080601f016020809104026020016040519081016040528093929190818152602001838380828437600081840152601f19601f820116905080830192505050505050509192919290505050610387565b005b610251600480360360208110156101ae57600080fd5b81019080803590602001906401000000008111156101cb57600080fd5b8201836020820111156101dd57600080fd5b803590602001918460018302840111640100000000831117156101ff57600080fd5b91908080601f016020809104026020016040519081016040528093929190818152602001838380828437600081840152601f19601f820116905080830192505050505050509192919290505050610409565b005b61030c6004803603602081101561026957600080fd5b810190808035906020019064010000000081111561028657600080fd5b82018360208201111561029857600080fd5b803590602001918460018302840111640100000000831117156102ba57600080fd5b91908080601f016020809104026020016040519081016040528093929190818152602001838380828437600081840152601f19601f820116905080830192505050505050509192919290505050610481565b6040518080602001828103825283818151815260200191508051906020019080838360005b8381101561034c578082015181840152602081019050610331565b50505050905090810190601f1680156103795780820380516001836020036101000a031916815260200191505b509250505060405180910390f35b806000836040518082805190602001908083835b602083106103be578051825260208201915060208101905060208303925061039b565b6001836020036101000a0380198251168184511680821785525050505050509050019150509081526020016040518091039020908051906020019061040492919061058c565b505050565b6000816040518082805190602001908083835b6020831061043f578051825260208201915060208101905060208303925061041c565b6001836020036101000a0380198251168184511680821785525050505050509050019150509081526020016040518091039020600061047e919061060c565b50565b60606000826040518082805190602001908083835b602083106104b95780518252602082019150602081019050602083039250610496565b6001836020036101000a03801982511681845116808217855250505050505090500191505090815260200160405180910390208054600181600116156101000203166002900480601f0160208091040260200160405190810160405280929190818152602001828054600181600116156101000203166002900480156105805780601f1061055557610100808354040283529160200191610580565b820191906000526020600020905b81548152906001019060200180831161056357829003601f168201915b50505050509050919050565b828054600181600116156101000203166002900490600052602060002090601f016020900481019282601f106105cd57805160ff19168380011785556105fb565b828001600101855582156105fb579182015b828111156105fa5782518255916020019190600101906105df565b5b5090506106089190610654565b5090565b50805460018160011615610100020316600290046000825580601f106106325750610651565b601f0160209004906000526020600020908101906106509190610654565b5b50565b61067691905b8082111561067257600081600090555060010161065a565b5090565b9056fea265627a7a723158208d3fa8b96c651128a503782b57c6bb13f4cc9b22546cd14948dc309fe9df535964736f6c63430005100032",
  "source": "pragma solidity >=0.4.24;\n\ncontract MappingsContract {\n    // Creates in Storage\n    mapping(string => string) relations;\n\n    // Add a relation\n    function addRelation(string memory name, string memory relation) public {\n        // Store the relation\n        relations[name] = relation;\n    }\n\n    // Returns a Relation\n    function getRelation(string memory name) public view returns (string memory){\n        return relations[name];\n    }\n\n    // Remove the key value pair from the mapping\n    function removeRelation(string memory name) public {\n        delete(relations[name]);\n    }\n}",
  "sourcePath": "/Users/mahesh/Desktop/Blockchain/Blockchain-Nanodegree/smart-contracts-solidity/contracts/mappingContract.sol",
  "compiler": {
    "name": "solc",
    "version": "0.5.16+commit.9c3226ce.Emscripten.clang"
  },
  "schemaVersion": "3.1.0",
  "updatedAt": "2020-04-26T21:00:38.755Z",
  "devdoc": {
    "methods": {}
  },
  "userdoc": {
    "methods": {}
  }
}