{
  "contractName": "StringBytes",
  "abi": [
    {
      "constant": true,
      "inputs": [],
      "name": "conversionTest",
      "outputs": [
        {
          "internalType": "string",
          "name": "",
          "type": "string"
        }
      ],
      "payable": false,
      "stateMutability": "pure",
      "type": "function"
    },
    {
      "constant": true,
      "inputs": [
        {
          "internalType": "uint256",
          "name": "index",
          "type": "uint256"
        }
      ],
      "name": "getElementAt",
      "outputs": [
        {
          "internalType": "bytes1",
          "name": "",
          "type": "bytes1"
        }
      ],
      "payable": false,
      "stateMutability": "view",
      "type": "function"
    },
    {
      "constant": true,
      "inputs": [],
      "name": "stringExamples",
      "outputs": [
        {
          "internalType": "string",
          "name": "",
          "type": "string"
        }
      ],
      "payable": false,
      "stateMutability": "pure",
      "type": "function"
    }
  ],
  "bytecode": "0x60806040526040518060400160405280600781526020017f74657374696e67000000000000000000000000000000000000000000000000008152506004908051906020019061004f929190610062565b5034801561005c57600080fd5b50610107565b828054600181600116156101000203166002900490600052602060002090601f016020900481019282601f106100a357805160ff19168380011785556100d1565b828001600101855582156100d1579182015b828111156100d05782518255916020019190600101906100b5565b5b5090506100de91906100e2565b5090565b61010491905b808211156101005760008160009055506001016100e8565b5090565b90565b610357806101166000396000f3fe608060405234801561001057600080fd5b50600436106100415760003560e01c80631d201aaf1461004657806392a33630146100c9578063d8a865f61461014c575b600080fd5b61004e6101d2565b6040518080602001828103825283818151815260200191508051906020019080838360005b8381101561008e578082015181840152602081019050610073565b50505050905090810190601f1680156100bb5780820380516001836020036101000a031916815260200191505b509250505060405180910390f35b6100d1610214565b6040518080602001828103825283818151815260200191508051906020019080838360005b838110156101115780820151818401526020810190506100f6565b50505050905090810190601f16801561013e5780820380516001836020036101000a031916815260200191505b509250505060405180910390f35b6101786004803603602081101561016257600080fd5b810190808035906020019092919050505061025c565b60405180827effffffffffffffffffffffffffffffffffffffffffffffffffffffffffffff19167effffffffffffffffffffffffffffffffffffffffffffffffffffffffffffff1916815260200191505060405180910390f35b6060806040518060400160405280600581526020017f616263646500000000000000000000000000000000000000000000000000000081525090508091505090565b6060806040518060400160405280600781526020017f556461636974790000000000000000000000000000000000000000000000000081525090506060819050809250505090565b6000606060048054600181600116156101000203166002900480601f0160208091040260200160405190810160405280929190818152602001828054600181600116156101000203166002900480156102f65780601f106102cb576101008083540402835291602001916102f6565b820191906000526020600020905b8154815290600101906020018083116102d957829003601f168201915b50505050509050600081848151811061030b57fe5b602001015160f81c60f81b9050809250505091905056fea265627a7a72315820efdcb5791cee2a6f8645d55ccb455fea6889deaa33113bc67747e94681bd48b264736f6c63430005100032",
  "source": "pragma solidity >=0.4.24;\n\ncontract StringBytes {\n    // Static byte arrays, Both declarations will create array with 3 byte elements\n    byte[3] fixedByteArray; // The type byte[] is an array of bytes, but due to padding rules, \n                            //it wastes 31 bytes of space for each element (except in storage). \n                            //It is better to use the bytes type instead.\n    bytes3 bytes3Array;\n    // Dynamic bytes arrays\n    byte[] dynamicByteArray;\n    bytes bytesArray;\n    // String variable\n    string    string1 = \"testing\";\n\n    // Converts the bytes type to string type\n    function conversionTest() public pure returns(string memory) {\n        bytes   memory string2 = \"Udacity\"; // dynamic memory bytes type\n        string  memory converted = string(string2);\n        return converted;\n    }\n\n    // Retrieves the element at specified index\n    // Cannot do with strings, hence converting to bytes\n    function  getElementAt(uint index) public view returns(byte) {\n        // Convert string to bytes\n        bytes  memory bytesData = bytes(string1);\n        // Get the element at the specified index\n        byte   element = bytesData[index];\n        return element;\n    }\n\n    function  testing() internal pure {\n        // uint8 need to be explicitly converted to byte type\n        // Converting to byte type, since fixedByteArray\n        // is a byte type array\n        // Assignment NOT allowed as bytes3 Array is a static Array\n        // is readonly\n        // bytes3Array[0] = 1;\n        // Memory dynamic bytes Array\n        bytes memory memoryBytes; // dynamic memory array\n        memoryBytes = new bytes(20); //allocating memory\n        memoryBytes[0] = \"a\";\n        // Push will give compiler error as push() allowed for storage only\n        //memoryBytes.push('c');\n    }\n\n    function stringExamples() public pure returns(string memory) {\n        string memory string3 = \"abcde\";  // string array in memory\n        return string3;\n    }\n}",
  "sourcePath": "/Users/mahesh/Desktop/Blockchain/Blockchain-Nanodegree/smart-contracts-solidity/contracts/stringsBytesContract.sol",
  "compiler": {
    "name": "solc",
    "version": "0.5.16+commit.9c3226ce.Emscripten.clang"
  },
  "schemaVersion": "3.1.0",
  "updatedAt": "2020-04-26T21:00:38.758Z",
  "devdoc": {
    "methods": {}
  },
  "userdoc": {
    "methods": {}
  }
}