{
  "contractName": "TypesConversion",
  "abi": [
    {
      "constant": false,
      "inputs": [],
      "name": "conversion",
      "outputs": [],
      "payable": false,
      "stateMutability": "nonpayable",
      "type": "function"
    }
  ],
  "bytecode": "0x608060405260ff6000806101000a81548160ff021916908360ff160217905550348015602a57600080fd5b50609d806100396000396000f3fe6080604052348015600f57600080fd5b506004361060285760003560e01c80639311ca6914602d575b600080fd5b60336035565b005b60008060009054906101000a900460ff1660ff169050806000806101000a81548160ff021916908360ff1602179055505056fea265627a7a7231582071384527e114e30b4cf0d33b16ddb84740a893e47476f5af84eb55f384280a5d64736f6c63430005100032",
  "source": "pragma solidity >=0.4.24;\n\ncontract TypesConversion {\n    uint8 a = 255;              // a is 1 bytes unsigned integer\n    uint ownerInitialBalance;   // uint256\n\n    function conversion ( ) public {\n        int  b;        // b is 32 bytes signed integer...256 bits\n        b = a;         // Compilation successful, since a 8bytes type can easily fit in a 32bytes type\n        // a = b;      // Fails compilation as the maximum value of int256 cannot be accomodated in uint8\n        a = uint8(b);  // Explicit type coversion...converting a 32bytes to 1bytes\n    }\n}",
  "sourcePath": "/Users/mahesh/Desktop/Blockchain/Blockchain-Nanodegree/smart-contracts-solidity/contracts/typeConversionContract.sol",
  "compiler": {
    "name": "solc",
    "version": "0.5.16+commit.9c3226ce.Emscripten.clang"
  },
  "schemaVersion": "3.1.0",
  "updatedAt": "2020-04-26T20:30:19.163Z",
  "devdoc": {
    "methods": {}
  },
  "userdoc": {
    "methods": {}
  }
}